:100000002DC0000046C0000044C000004FC20000E8
:1000100040C000003EC000003CC000003AC00000EC
:1000200038C0000036C0000034C0000032C00000FC
:1000300030C000002EC000002CC000002AC000000C
:1000400028C0000026C0000024C0000022C000001C
:1000500020C000001EC000001CC0000011241FBEF4
:10006000CFEFD4E0DEBFCDBF11E0A0E0B1E0ECEF18
:10007000F5E002C005900D92A831B107D9F723E051
:10008000A8E1B1E001C01D92AF33B207E1F7E6D0BD
:10009000B3C2B6CF87EB8093E50087E08093E6009C
:1000A0008FE08093E70080E88093E400089508954E
:1000B000CF93DF93CDB7DEB728970FB6F894DEBFA6
:1000C0000FBECDBF90ED980F9A30B0F5E82FEE0F30
:1000D000FF0BE056FF4F908181819D838E83262FF9
:1000E000269530E024513F4F38872F836170DE0121
:1000F00011969E012B5F3F4F9F709C938D819E8137
:10010000929582958F7089279F7089279E838D8312
:10011000EF81F8858081611118C0807F8083908194
:100120008C91892B80833596F887EF831196A217DF
:10013000B30711F09D81E0CF28960FB6F894DEBF8B
:100140000FBECDBFDF91CF9108958F708083408126
:100150009C9150E1959FC0011124842B8083E3CFB3
:100160008F929F92AF92BF92CF92DF92EF92FF92C7
:100170004B015C0183E088169104A104B104DCF01A
:1001800080FE23C083E0C82ED12CE12CF12C0CC0C2
:100190008FEFC81AD80AE80AF80AC501B401ADD130
:1001A000672B682B692B89F09601A7018C149D049D
:1001B000AE04BF0469F781E0FF90EF90DF90CF902D
:1001C000BF90AF909F908F90089580E0F5CF8F9271
:1001D0009F92AF92BF92CF92DF92EF92FF92CF9316
:1001E000DF934B015C01EA0124E630E040E050E09F
:1001F00084D12AE0C22ED12CE12CF12CA70196014A
:100200007CD16C2F80E3820F53DF2196C501B401AE
:10021000A701960172D1862F6C2F805DDF91CF915F
:10022000FF90EF90DF90CF90BF90AF909F908F9016
:100230003FCFEC01C12CD12C7601C39405C08FEFC8
:10024000C81AD80AE80AF80AC701B60189DF882364
:10025000B1F3AE01C701B601BADFF1CF28DF1ADF73
:1002600060E070E089E191E021D083E090E0E1DF9F
:10027000CF93DF9300D0CDB7DEB79A838983809187
:10028000140190911501069676D1892B29F00F90D3
:100290000F90DF91CF91089589819A8190931501F4
:1002A0008093140161E070E0069685D1CF93DF93CF
:1002B00000D0CDB7DEB7F894209118013091190124
:1002C000232B09F442C020911601309117013A8383
:1002D0002983232B09F476C0E981FA814481558171
:1002E0005093170140931601918380837383628337
:1002F00015821482CF0106963ED1019709F46FC092
:10030000E981FA81369689819A8187599F4F918B2D
:10031000808B938B828BE981FA8115821482E09124
:100320001A01F0911B01309711F44DC0FC0184813A
:1003300095810097D9F789819A81958384837894F0
:100340000F900F90DF91CF910895ECE6F0E02081BF
:10035000205820832DB320582DBB20E830E0309367
:100360003E0320933D0320913D0330913E0335B180
:10037000232725B924B12F6024B926EF31E030932B
:100380008E0120938D0123E632E03093FB01209310
:10039000FA0120ED32E03093680220936702109258
:1003A000D5021092D40221E030E03093190120935D
:1003B000180120911601309117013A832983232BCC
:1003C00009F08ACFFFCF29813A8130931B01209316
:1003D0001A0178940F900F90DF91CF91089578943F
:1003E000A0911401B0911501ED91FC911197129615
:1003F0008D919C9113970995F894A0911401B09157
:10040000150115961C921E921497E0911601F09119
:100410001701309711F416C0FC0184819581009773
:10042000D9F7B583A48380911A0190911B0100979D
:1004300099F0FC012481358130931B0120931A012E
:1004400017DF5ECFB0931701A093160180911A01B8
:1004500090911B01009769F7FFCF80911401909153
:100460001501FC0115821482A0911A01B0911B01A3
:100470001097B1F0FD0101C0F901248135812115EA
:100480003105D1F79583848314962D913C9115976E
:10049000CD0130931B0120931A01EADE7894089570
:1004A000009709F4FFCF20E030E0F3CF1F920F92C6
:1004B0000FB60F9211242F933F934F935F936F9337
:1004C0007F938F939F93AF93BF93EF93FF93789412
:1004D00083B1803809F0C1DFFF91EF91BF91AF91F7
:1004E0009F918F917F916F915F914F913F912F914C
:1004F0000F900FBE0F901F901895052E97FB16F4C6
:1005000000940FD057FD05D014D007FC02D046F45C
:1005100008C050954095309521953F4F4F4F5F4F04
:10052000089590958095709561957F4F8F4F9F4F5F
:100530000895A1E21A2EAA1BBB1BFD010DC0AA1F24
:10054000BB1FEE1FFF1FA217B307E407F50720F03C
:10055000A21BB30BE40BF50B661F771F881F991FB7
:100560001A9469F760957095809590959B01AC0100
:10057000BD01CF010895DC012D923D924D925D9217
:100580006D927D928D929D92AD92BD92CD92DD92B3
:10059000ED92FD920D931D93CD93DD93FF91EF911D
:1005A0008DB78D938EB78D938FB78D93ED93FD930C
:1005B000882799270994DC01CB0181309105811DA1
:1005C0002D903D904D905D906D907D908D909D9083
:1005D000AD90BD90CD90DD90ED90FD900D911D9171
:1005E000CD91DD91ED91FD910D90F894FEBF0FBE80
:0C05F000EDBFED91FD910994F894FFCF50
:1005FC0051151801111E111B500B411B411F0940B5
:08060C00511F511B1C01890163
:00000001FF
