:100000000C942E000C9443000C9443000C94430079
:100010000C9443000C9443000C9443000C94430054
:100020000C9443000C9443000C9443000C94430044
:100030000C9443000C9443000C9443000C94430034
:100040000C9443000C9443000C9443000C94430024
:100050000C9443000C9443000C94430011241FBEE5
:10006000CFEFD4E0DEBFCDBF11E0A0E0B1E0ECEB1C
:10007000FAE002C005900D92A831B107D9F70E94AD
:100080009D010C945C050C940000CF93DF93CDB7D9
:10009000DEB728970FB6F894DEBF0FBECDBFE82FAE
:1000A000F0E0EE0FFF1FE056FF4F908181819D83AE
:1000B0008E83262F269530E024513F4F38872F839B
:1000C0006170DE0111969E012B5F3F4F9F709C93E4
:1000D0008D819E81929582958F7089279F70892747
:1000E0009E838D83EF81F885808161110FC0807FB1
:1000F000808390818C91892B80833596F887EF835C
:100100001196A217B30799F09D81E0CF8F7080837D
:1001100040819C9150E1959FC0011124842B8083E4
:100120003596F887EF831196A217B30769F72896DB
:100130000FB6F894DEBF0FBECDBFDF91CF9108950B
:10014000CF92DF92EF92FF921F93CF93DF937C01C8
:100150006B01EB012697C80FD91F10E007C01F5F86
:10016000CE018E199F09C816D9067CF0899190EDB1
:10017000980F9A30A0F7612F0E9445001F5FCE01B3
:100180008E199F09C816D9068CF7DF91CF911F9160
:10019000FF90EF90DF90CF9008954F925F926F9213
:1001A0007F928F929F92AF92BF92CF92DF92EF9207
:1001B000FF920F931F93CF93DF93CDB7DEB72B0141
:1001C0003C01CDB6DEB6DC01CB0180959095A095C3
:1001D000B0958827B7FD83959927AA27BB2702E00A
:1001E00010E0081B190BA30192016AE0862E912CE6
:1001F000A12CB12C01C0870178018FEFE81AF80A11
:10020000CA01B901A50194010E94310221153105ED
:100210004105510581F78DB79EB78E199F090FB61D
:10022000F8949EBF0FBE8DBF01967C017F926F92A6
:100230005F924F9284E191E09F938F93FF92EF92B0
:100240000E947202B801C7010E94A0008DB79EB73C
:1002500008960FB6F8949EBF0FBE8DBF0FB6F894E8
:10026000DEBE0FBECDBEDF91CF911F910F91FF90EB
:10027000EF90DF90CF90BF90AF909F908F907F9046
:100280006F905F904F9008958F929F92AF92BF9220
:10029000CF92DF92EF92FF924B015C012FEF821A17
:1002A000920AA20AB20A23E082169104A104B104C0
:1002B00064F180FE1FC083E0C82ED12CE12CF12C0C
:1002C0000DC08FEFC81AD80AE80AF80AC501B401B0
:1002D0000E943102672B682B692B61F0A701960100
:1002E0008C149D04AE04BF0461F782169306A40625
:1002F000B506A1F08FEF881A980AA80AB80A23E079
:1003000082169104A104B104A4F622E030E040E09A
:1003100050E082169306A406B50661F7C501B40144
:100320000E94CD00C501B401FF90EF90DF90CF9007
:10033000BF90AF909F908F90089587EB8093E500DA
:1003400087E08093E6008FE08093E70090E8909349
:10035000E40095B984B9179A84E080938100C0E0E5
:1003600020E06AEF70E0D0E011E08091840090918D
:1003700085008A309D43C8F421110AC0D11167C09D
:100380001093F400D1E080E090E00E94440121E06D
:100390001F9951C083B1880F880BC82380918400B6
:1003A000909185008A309D4338F38091840090912C
:1003B000850089309D43C8F22130D9F01F9925C0AE
:1003C00083B1880F880BC8238091840090918500A9
:1003D00082319A4750F310928500109284008091E8
:1003E00084009091850089309D4308F4BECF213070
:1003F00029F7D11116C02093F400D1E080E090E0FD
:100400000E94440120E01F9BDBCFC111D9CF809116
:10041000F90081110AC01093F9001092FE00C1E0AA
:10042000CFCF1092F400D0E0E9CF1092F9001093F2
:10043000FE00C1E0C5CFC111ADCF8091F90081119F
:100440000AC01093F9001092FE00C1E0A3CF1092F1
:10045000F400D0E098CF1092F9001093FE00C1E0B4
:1004600099CF052E97FB1EF400940E94480257FD79
:1004700007D00E94500207FC03D04EF40C944802AF
:1004800050954095309521953F4F4F4F5F4F0895C0
:1004900090958095709561957F4F8F4F9F4F0895F0
:1004A000A1E21A2EAA1BBB1BFD010DC0AA1FBB1F78
:1004B000EE1FFF1FA217B307E407F50720F0A21BEA
:1004C000B30BE40BF50B661F771F881F991F1A9457
:1004D00069F760957095809590959B01AC01BD0181
:1004E000CF010895AEE0B0E0E8E7F2E00C94330508
:1004F0000D891E8986E08C831A8309838FEF9FE71D
:100500009E838D83AE01475E5F4F6F89788DCE01EC
:1005100001960E949402EF81F885E00FF11F10828E
:100520002E96E4E00C944F05ABE0B0E0EAE9F2E08F
:100530000C9425056C017B018A01FC01178216824F
:10054000838181FFCCC1CE0101963C01F6019381EC
:10055000F70193FD859193FF81917F01882309F431
:10056000BAC1853239F493FD859193FF81917F0162
:10057000853229F4B60190E00E948B04E7CF912CDC
:10058000212C312CFFE1F315D8F08B3279F038F4BF
:10059000803279F08332A1F4232D20611DC08D3289
:1005A00061F0803369F4232D216016C0832D8260B1
:1005B000382EE32DE4603E2E2AC0F32DF8601DC0D6
:1005C00037FC2DC020ED280F2A3040F08E32B9F4D0
:1005D00036FC81C1232D2064322E19C036FE06C0A0
:1005E0008AE0989E200D1124922E11C0EAE02E9EE2
:1005F000200D1124222EF32DF0623F2E08C08C36E0
:1006000021F4832D8068382E02C0883641F4F7012A
:1006100093FD859193FF81917F018111B3CF982F35
:100620009F7D9554933028F40C5F1F4F9FE399836F
:100630000DC0833631F0833771F0833509F059C02E
:1006400021C0F801808189830E5F1F4F8824839425
:10065000912C530113C02801F2E04F0E511CF801F8
:10066000A080B18036FE03C0692D70E002C06FEF3C
:100670007FEFC5010E9480044C018201F32DFF77BA
:100680003F2E16C0280122E0420E511CF801A08026
:10069000B18036FE03C0692D70E002C06FEF7FEFBE
:1006A000C5010E9475044C01F32DF0683F2E8201B4
:1006B00033FC1BC0822D90E088169906B0F4B60179
:1006C00080E290E00E948B042A94F4CFF50137FC7D
:1006D000859137FE81915F01B60190E00E948B0405
:1006E00021102A9421E0821A91088114910471F753
:1006F000E8C0843611F0893641F5F80137FE07C0AD
:1007000060817181828193810C5F1F4F08C060817D
:100710007181072E000C880B990B0E5F1F4FF32D74
:10072000FF763F2E97FF09C0909580957095619553
:100730007F4F8F4F9F4FF0683F2E2AE030E0A3019C
:100740000E94C704882E861845C0853731F4232DB2
:100750002F7EB22E2AE030E025C0932D997FB92E4E
:100760008F36C1F018F4883579F0B5C0803719F0AC
:10077000883721F0B0C0E92FE061BE2EB4FE0DC075
:10078000FB2DF460BF2E09C034FE0AC0292F26605D
:10079000B22E06C028E030E005C020E130E002C003
:1007A00020E132E0F801B7FE07C0608171818281EB
:1007B00093810C5F1F4F06C06081718180E090E0E3
:1007C0000E5F1F4FA3010E94C704882E8618FB2DC1
:1007D000FF773F2E36FE0DC0232D2E7FA22E8914CB
:1007E00058F434FE0BC032FC09C0832D8E7EA82E37
:1007F00005C0B82CA32C03C0B82C01C0B92CA4FE92
:100800000FC0FE01E80DF11D8081803321F49A2D87
:10081000997EA92E09C0A2FE06C0B394B39404C069
:100820008A2D867809F0B394A3FC11C0A0FE06C0FF
:10083000B21488F4280C922C9B180EC0B21460F4E9
:10084000B60180E290E00E948B04B394F7CFB2141B
:1008500018F42B1802C0982C212CA4FE10C0B6014D
:1008600080E390E00E948B04A2FE17C0A1FC03C0AD
:1008700088E790E002C088E590E0B6010CC08A2DC0
:10088000867859F0A1FE02C08BE201C080E2A7FC8D
:100890008DE2B60190E00E948B04891438F4B60111
:1008A00080E390E00E948B049A94F7CF8A94F3013E
:1008B000E80DF11D8081B60190E00E948B0481104B
:1008C000F5CF222009F442CEB60180E290E00E94EA
:1008D0008B042A94F6CFF6018681978102C08FEFB0
:1008E0009FEF2B96E2E10C944105FC0105906150CD
:1008F00070400110D8F7809590958E0F9F1F089536
:10090000FC016150704001900110D8F780959095DE
:100910008E0F9F1F08950F931F93CF93DF93FB01BB
:10092000238121FD03C08FEF9FEF2CC022FF16C053
:1009300046815781248135814217530744F4A081B1
:10094000B1819D012F5F3F4F318320838C9326819E
:1009500037812F5F3F4F3783268314C08B01EC0113
:10096000FB010084F185E02D0995892BE1F6D80182
:1009700016968D919C911797019617969C938E933E
:100980001697CE01DF91CF911F910F910895FA0133
:10099000AA27283051F1203181F1E8946F936E7FBE
:1009A0006E5F7F4F8F4F9F4FAF4FB1E03ED0B4E0AF
:1009B0003CD0670F781F891F9A1FA11D680F791FF0
:1009C0008A1F911DA11D6A0F711D811D911DA11D01
:1009D00020D009F468943F912AE0269F1124301911
:1009E000305D3193DEF6CF010895462F4770405DAC
:1009F0004193B3E00FD0C9F7F6CF462F4F70405D5B
:100A00004A3318F0495D31FD4052419302D0A9F7B5
:100A1000EACFB4E0A6959795879577956795BA95AF
:100A2000C9F700976105710508959B01AC010A2E75
:100A300006945795479537952795BA95C9F7620F4C
:100A4000731F841F951FA01D08952F923F924F92F0
:100A50005F926F927F928F929F92AF92BF92CF924E
:100A6000DF92EF92FF920F931F93CF93DF93CDB757
:100A7000DEB7CA1BDB0B0FB6F894DEBF0FBECDBFCF
:100A800009942A88398848885F846E847D848C84A0
:100A90009B84AA84B984C884DF80EE80FD800C81A9
:100AA0001B81AA81B981CE0FD11D0FB6F894DEBF8C
:0C0AB0000FBECDBFED010895F894FFCFFC
:100ABC0051151801111E111B500B411B411F0940F0
:080ACC00511F511B256C640051
:00000001FF
