S00C00004C6162312E73726563D8
S11300000C942E000C9443000C9443000C94430075
S11300100C9443000C9443000C9443000C94430050
S11300200C9443000C9443000C9443000C94430040
S11300300C9443000C9443000C9443000C94430030
S11300400C9443000C9443000C9443000C94430020
S11300500C9443000C9443000C94430011241FBEE1
S1130060CFEFD4E0DEBFCDBF11E0A0E0B1E0E8E720
S1130070FBE002C005900D92A831B107D9F70E94A8
S113008019020C94BA050C94000087EB8093E500E8
S113009087E08093E6008FE08093E70080E8809318
S11300A0E4000895179A84E0809381000895CF9323
S11300B0DF93CDB7DEB728970FB6F894DEBF0FBE37
S11300C0CDBF90ED980F9A3008F046C0E82FF0E0CD
S11300D0EE0FFF1FE056FF4F808191819E838D8339
S11300E0862F869590E084519F4F98878F83FE01D9
S11300F031969E012B5F3F4F61708D818F7080839D
S11301008D819E81929582958F7089279F70892712
S11301109E838D8361110AC0AF81B8858C91807FE5
S11301208C939C918081892B8C930DC0AF81B88571
S11301308C918F708C934C91908150E1959FC0016C
S11301401124842B8C938F819885059698878F83AF
S11301503196E217F30789F628960FB6F894DEBFB6
S11301600FBECDBFDF91CF9108951092EC00109295
S1130170F1001092F6001092FB001092ED00109224
S1130180F2001092F7001092FC001092EE00109210
S1130190F3001092F8001092FD001092EF001092FC
S11301A0F4001092F9001092FE0008958F929F922D
S11301B0AF92BF92CF92DF92EF92FF92CF93DF93F1
S11301C06B017C014B015C0181E0881A9108A10854
S11301D0B10882E088169104A104B1046CF1D7013E
S11301E0C60181709927AA27B078BB2354F40197DC
S11301F0A109B1098E6F9F6FAF6FBF6F0196A11DEB
S1130200B11D892B8A2B8B2B09F1C2E0D0E008C0E9
S1130210C701B6010E948F02672B682B692BC9F0B6
S113022021969E010D2E000C440B550B821693064D
S1130230A406B5066CF704C022E030E040E050E0CC
S1130240C216D306E406F50639F008C080E090E053
S113025005C080E090E002C081E090E0DF91CF91A2
S1130260FF90EF90DF90CF90BF90AF909F908F90D2
S11302700895CF92DF92EF92FF921F93CF93DF9373
S1130280EB0126976C177D0784F07B016C01C80F86
S1130290D91F10E0612F89910E9457001F5F9E01B2
S11302A02C193D09E216F306ACF7DF91CF911F91AB
S11302B0FF90EF90DF90CF9008954F925F926F92EE
S11302C07F928F929F92AF92BF92CF92DF92EF92E2
S11302D0FF920F931F93CF93DF93CDB7DEB72B011C
S11302E03C01CDB6DEB6DC01CB0180959095A0959E
S11302F0B0958827B7FD83959927AA27BB2702E0E5
S113030010E0081B190BA30192010F2EFAE08F2EA7
S1130310912CA12CB12CF02D01C0870178018FEF15
S1130320E81AF80ACA01B901A50194010E948F02D2
S1130330211531054105510581F78DB79EB78E19F9
S11303409F090FB6F8949EBF0FBE8DBF01967C0126
S11303507F926F925F924F9284E191E09F938F938B
S1130360FF92EF920E94D002B8018E2D9F2D0E9421
S113037039018DB79EB708960FB6F8949EBF0FBE8D
S11303808DBF0FB6F894DEBE0FBECDBEDF91CF9108
S11303901F910F91FF90EF90DF90CF90BF90AF909F
S11303A09F908F907F906F905F904F9008958F9261
S11303B09F92AF92BF92CF92DF92EF92FF92CF9330
S11303C0DF934B015C01C1E0D0E001C021966E01D6
S11303D00D2E000CEE08FF08C80CD91CEA1CFB1CEF
S11303E0C701B6010E94D600019781F7C701B60183
S11303F00E945D01C701B601DF91CF91FF90EF909C
S1130400DF90CF90BF90AF909F908F900895892BED
S113041031F481E08093F40081E090E0089510923B
S1130420F40080E090E0089580E885B98FE084B915
S113043008950E9445000E9414020E9452001092E6
S1130440850010928400D0E0C0E00F2EFAEFEF2E6A
S1130450F12CF02D712C04E810E0512C9924939484
S11304600F2EF9EFAF2EB12CF02D0F2EFEEFCF2E65
S1130470D12CF02D692C852C20C0C1110CC0872DE6
S113048090E00E940702782EB70180E090E00E947D
S1130490D7017B01C92D1F99D92D1F9B09C0D130CC
S11304A029F4F5019082F601108207C0D11105C02C
S11304B0F5011082F6019082D52DF8018081918199
S11304C082319A47D0F60E94B50020C0C13061F451
S11304D0872D90E00E940702782EB70180E090E01B
S11304E00E94D7017B01C82D1F99D62D1F9B09C0DF
S11304F0D13029F4F5019082F601108207C0D111A0
S113050005C0F5011082F6019082D82DF801808192
S1130510918183319A47D0F20E94B500CECF052E47
S113052097FB1EF400940E94A60257FD07D00E9478
S1130530AE0207FC03D04EF40C94A60250954095ED
S1130540309521953F4F4F4F5F4F0895909580957B
S1130550709561957F4F8F4F9F4F0895A1E21A2E9A
S1130560AA1BBB1BFD010DC0AA1FBB1FEE1FFF1F53
S1130570A217B307E407F50720F0A21BB30BE40BA3
S1130580F50B661F771F881F991F1A9469F76095EA
S11305907095809590959B01AC01BD01CF010895A4
S11305A0AEE0B0E0E6EDF2E00C9491050D891E8911
S11305B086E08C831A8309838FEF9FE79E838D8364
S11305C0AE01475E5F4F6F89788DCE0101960E9420
S11305D0F202EF81F885E00FF11F10822E96E4E01D
S11305E00C94AD05ABE0B0E0E8EFF2E00C948305C9
S11305F06C017B018A01FC0117821682838181FFD1
S1130600CCC1CE0101963C01F6019381F70193FD23
S1130610859193FF81917F01882309F4BAC18532C2
S113062039F493FD859193FF81917F01853229F4FB
S1130630B60190E00E94E904E7CF912C212C312CE3
S1130640FFE1F315D8F08B3279F038F4803279F089
S11306508332A1F4232D20611DC08D3261F08033DB
S113066069F4232D216016C0832D8260382EE32D7A
S1130670E4603E2E2AC0F32DF8601DC037FC2DC067
S113068020ED280F2A3040F08E32B9F436FC81C1B7
S1130690232D2064322E19C036FE06C08AE0989EAF
S11306A0200D1124922E11C0EAE02E9E200D11245B
S11306B0222EF32DF0623F2E08C08C3621F4832DB8
S11306C08068382E02C0883641F4F70193FD859185
S11306D093FF81917F018111B3CF982F9F7D955412
S11306E0933028F40C5F1F4F9FE399830DC083362A
S11306F031F0833771F0833509F059C021C0F80116
S1130700808189830E5F1F4F88248394912C530129
S113071013C02801F2E04F0E511CF801A080B180F3
S113072036FE03C0692D70E002C06FEF7FEFC50194
S11307300E94DE044C018201F32DFF773F2E16C088
S1130740280122E0420E511CF801A080B18036FE3F
S113075003C0692D70E002C06FEF7FEFC5010E94F6
S1130760D3044C01F32DF0683F2E820133FC1BC0EF
S1130770822D90E088169906B0F4B60180E290E0EC
S11307800E94E9042A94F4CFF50137FC859137FEE1
S113079081915F01B60190E00E94E90421102A943E
S11307A021E0821A91088114910471F7E8C084361B
S11307B011F0893641F5F80137FE07C06081718177
S11307C0828193810C5F1F4F08C060817181072E65
S11307D0000C880B990B0E5F1F4FF32DFF763F2EF5
S11307E097FF09C090958095709561957F4F8F4FC5
S11307F09F4FF0683F2E2AE030E0A3010E942505B8
S1130800882E861845C0853731F4232D2F7EB22ECD
S11308102AE030E025C0932D997FB92E8F36C1F0A0
S113082018F4883579F0B5C0803719F0883721F08D
S1130830B0C0E92FE061BE2EB4FE0DC0FB2DF46004
S1130840BF2E09C034FE0AC0292F2660B22E06C06E
S113085028E030E005C020E130E002C020E132E0D1
S1130860F801B7FE07C060817181828193810C5FBA
S11308701F4F06C06081718180E090E00E5F1F4FC2
S1130880A3010E942505882E8618FB2DFF773F2E95
S113089036FE0DC0232D2E7FA22E891458F434FE6B
S11308A00BC032FC09C0832D8E7EA82E05C0B82C47
S11308B0A32C03C0B82C01C0B92CA4FE0FC0FE01A8
S11308C0E80DF11D8081803321F49A2D997EA92EA3
S11308D009C0A2FE06C0B394B39404C08A2D8678DE
S11308E009F0B394A3FC11C0A0FE06C0B21488F4AE
S11308F0280C922C9B180EC0B21460F4B60180E24E
S113090090E00E94E904B394F7CFB21418F42B18C2
S113091002C0982C212CA4FE10C0B60180E390E004
S11309200E94E904A2FE17C0A1FC03C088E790E07E
S113093002C088E590E0B6010CC08A2D867859F093
S1130940A1FE02C08BE201C080E2A7FC8DE2B601E9
S113095090E00E94E904891438F4B60180E390E041
S11309600E94E9049A94F7CF8A94F301E80DF11DEB
S11309708081B60190E00E94E9048110F5CF222025
S113098009F442CEB60180E290E00E94E9042A9480
S1130990F6CFF6018681978102C08FEF9FEF2B96E9
S11309A0E2E10C949F05FC01059061507040011038
S11309B0D8F7809590958E0F9F1F0895FC01615084
S11309C0704001900110D8F7809590958E0F9F1F6D
S11309D008950F931F93CF93DF93FB01238121FD90
S11309E003C08FEF9FEF2CC022FF16C046815781B2
S11309F0248135814217530744F4A081B1819D01BC
S1130A002F5F3F4F318320838C93268137812F5F63
S1130A103F4F3783268314C08B01EC01FB01008414
S1130A20F185E02D0995892BE1F6D80116968D9173
S1130A309C911797019617969C938E931697CE01C7
S1130A40DF91CF911F910F910895FA01AA272830C1
S1130A5051F1203181F1E8946F936E7F6E5F7F4F87
S1130A608F4F9F4FAF4FB1E03ED0B4E03CD0670F03
S1130A70781F891F9A1FA11D680F791F8A1F911D56
S1130A80A11D6A0F711D811D911DA11D20D009F4A6
S1130A9068943F912AE0269F11243019305D3193E8
S1130AA0DEF6CF010895462F4770405D4193B3E0D1
S1130AB00FD0C9F7F6CF462F4F70405D4A3318F078
S1130AC0495D31FD4052419302D0A9F7EACFB4E029
S1130AD0A6959795879577956795BA95C9F70097E1
S1130AE06105710508959B01AC010A2E0694579582
S1130AF0479537952795BA95C9F7620F731F841FD9
S1130B00951FA01D08952F923F924F925F926F926E
S1130B107F928F929F92AF92BF92CF92DF92EF9289
S1130B20FF920F931F93CF93DF93CDB7DEB7CA1B0A
S1130B30DB0B0FB6F894DEBF0FBECDBF09942A8835
S1130B40398848885F846E847D848C849B84AA84DD
S1130B50B984C884DF80EE80FD800C811B81AA816A
S1130B60B981CE0FD11D0FB6F894DEBF0FBECDBF35
S10B0B70ED010895F894FFCF94
S1130B7851151801111E111B500B411B411F09402F
S10B0B88511F511B256C640090
S9030000FC
